:040000009FEF35F049
:106B2200016E01C083FF1200070E93160F0E95121D
:106B3200120034C001F035C002F0120000EE30F055
:106B4200070EEE6AE806FDE100016BEF3DF094925C
:106B52009494030ECA12CA840C0EBD120C0EBA1201
:106B62001200000E016E012A180E0164BBEF35F00F
:106B7200BDEF35F0B4EF35F01200000E026EB2EC4C
:106B820035F0022A310E0264C9EF35F0CBEF35F051
:106B9200C0EF35F01200480E016EE80E026E010ED3
:106BA200036E000E046E0FC005F010C006F0076AF7
:106BB200086A33EC39F00104CB6E12000150030273
:106BC200F3CF05F0F4CF06F001500402F35006268D
:106BD20002500302F350062605C001F006C002F07F
:106BE2001200066E8482065091EC35F08494000EF9
:106BF200026E030E016E07EC36F08492000E026EF6
:106C0200030E016E07EC36F084821200000E046E51
:106C1200000E036E1AEF36F0000E056E052AC70E3F
:106C2200056416EF36F018EF36F00FEF36F0034A30
:106C3200042A0150035C02500458D8A023EF36F016
:106C420025EF36F00DEF36F01200076E83CF08F015
:106C5200000E956E000E026E220E016E000E046E84
:106C6200010E036E1DEC3BF007C083FF000E026EA7
:106C7200210E016E000E046E010E036E1DEC3BF040
:106C8200000E026E210E016E000E046E000E036EE7
:106C92001DEC3BF008C083FFB2EC35F01200000E91
:106CA200096E000E0A6E000E0B6E000E0C6E01A035
:106CB2005DEF36F05FEF36F067EF36F005500926EC
:106CC20006500A2207500B2208500C22D890053693
:106CD200063607360836D8900432033202320132C1
:106CE2000150021003100410D8A47AEF36F07CEFA2
:106CF20036F058EF36F009C001F00AC002F00BC0BE
:106D020003F00CC004F012000B6E000E0A6E0B5062
:106D1200D8A48EEF36F090EF36F093EF36F00950AC
:106D2200800F0A6E0B04D8A499EF36F09BEF36F071
:106D32009EEF36F00950C00F0A6E020E0B18D8A44F
:106D4200A5EF36F0A7EF36F0AAEF36F00950900F14
:106D52000A6E030E0B18D8A4B1EF36F0B3EF36F07B
:106D6200B6EF36F00950D00F0A6E0A50E0EC37F059
:106D720012000A6E010ECB24016E026A000E02227C
:106D82000AC003F0046ADFEC35F001C00BF002C068
:106D92000CF00BC001F00CC002F0000E046E190ED4
:106DA200036EF0EC36F001C00BF002C00CF0FF0EE7
:106DB2000B16030E0C160BC008F00CC009F0D8908D
:106DC20009320832D890093208320850BE6E0BC020
:106DD20008F0030E08160838F00BBD121200000E60
:106DE200066E000E056E03500410D8B4FBEF36F0A9
:106DF200FDEF36F025EF37F0010E076E05EF37F0A5
:106E0200D89003360436072A04AE0AEF37F00CEFA7
:106E120037F001EF37F0D890053606360350015CA3
:106E220004500258D8A018EF37F01AEF37F01FEFCE
:106E320037F00350015E0450025A0580D8900432A4
:106E42000332072E0CEF37F005C001F006C002F046
:106E52001200000E026E220E016E000E046E000E73
:106E6200036E44EC3CF0000E026E210E016E000E29
:106E7200046E000E036E44EC3CF0000E956EBEEC08
:106E820035F0BEEC35F0BEEC35F0BEEC35F0BEECC4
:106E920035F0380EE0EC37F0BEEC35F0BEEC35F0F4
:106EA200380EE0EC37F0BEEC35F0380EE0EC37F09F
:106EB200380EE0EC37F0060EE0EC37F00C0EE0ECAA
:106EC20037F0010EE0EC37F012002AEC37F0050E35
:106ED200096E010E85EC36F0470E26EC36F0720E86
:106EE20026EC36F0690E26EC36F06C0E26EC36F007
:106EF2006C0E26EC36F0040E096E020E85EC36F0AE
:106F0200450E26EC36F06C0E26EC36F0650E26ECBD
:106F120036F0740E26EC36F0720E26EC36F0690E60
:106F220026EC36F0630E26EC36F06F0E26EC36F0C9
:106F32000D0E026EAC0E016E07EC36F0010EF2EC95
:106F420035F01200016E000E026ED6EF37F0000E21
:106F5200056E630E0564B0EF37F0B2EF37F0B4EFB1
:106F620037F0D5EF37F0000E036E280E0364BCEF46
:106F720037F0BEEF37F0C0EF37F0D2EF37F0000E48
:106F8200046E020E0464C8EF37F0CAEF37F0CCEF9C
:106F920037F0CFEF37F0042AC2EF37F0032AB6EF0B
:106FA20037F0052AAAEF37F0022A0150025CD8A076
:106FB200DDEF37F0DFEF37F0A8EF37F01200086EA1
:106FC20083CF07F0000E956E000E026E220E016E48
:106FD200000E046E000E036E1DEC3BF008C083FF32
:106FE200000E026E210E016E000E046E010E036E83
:106FF2001DEC3BF0000E026E210E016E000E046EBF
:10700200000E036E1DEC3BF007C083FF020E081852
:10701200D8B40EEF38F010EF38F018EF38F008045B
:10702200D8A416EF38F018EF38F01CEF38F0BEECA9
:1070320035F01EEF38F0B2EC35F01200125013109A
:1070420014101510D8B428EF38F02AEF38F05AEFA0
:1070520038F0010E166E34EF38F0D890123613362F
:1070620014361536162A15AE39EF38F03BEF38F0E4
:107072002EEF38F012500E5C13500F581450105867
:1070820015501158D8A048EF38F04AEF38F052EFB7
:1070920038F012500E5E13500F5A1450105A1550F9
:1070A200115AD8901532143213321232162E3BEF87
:1070B20038F00EC00EF00FC00FF010C010F011C06B
:1070C20011F01200000E096E000E0A6E000E0B6E19
:1070D200000E0C6E0550061007100810D8B474EF9D
:1070E20038F076EF38F0ACEF38F0010E0D6E80EF2D
:1070F20038F0D89005360636073608360D2A08AE1F
:1071020085EF38F087EF38F07AEF38F0D89009360B
:107112000A360B360C360550015C065002580750F1
:10712200035808500458D8A099EF38F09BEF38F074
:10713200A4EF38F00550015E0650025A0750035A78
:107142000850045A0980D8900832073206320532B4
:107152000D2E87EF38F009C001F00AC002F00BC013
:1071620003F00CC004F012002AEC37F0000E096E96
:10717200000E85EC36F0370E26EC36F02D0E26EC9E
:1071820036F04D0E26EC36F0610E26EC36F06C0E23
:1071920026EC36F0200E26EC36F0700E26EC36F099
:1071A200610E26EC36F0730E26EC36F0730E26ECEA
:1071B20036F0610E26EC36F0640E26EC36F0610EE7
:1071C20026EC36F0000E096E010E85EC36F0380E14
:1071D20026EC36F02D0E26EC36F0410E26EC36F07B
:1071E2006F0E26EC36F0200E26EC36F0700E26ECF2
:1071F20036F06F0E26EC36F06E0E26EC36F0740E7C
:1072020026EC36F06F0E26EC36F0000E096E020EFA
:1072120085EC36F0390E26EC36F02D0E26EC36F0E3
:10722200420E26EC36F0650E26EC36F06D0E26EC9C
:1072320036F0200E26EC36F0700E26EC36F0610E9B
:1072420026EC36F0730E26EC36F0730E26EC36F092
:10725200610E26EC36F0640E26EC36F0610E26EC5A
:1072620036F01200000E0A6E08BE3CEF39F03AEF1B
:1072720039F046EF39F0081E071E061E056C000E97
:10728200062207220822010E0A6E04BE4DEF39F0D3
:107292004BEF39F057EF39F0041E031E021E016C4A
:1072A200000E022203220422010E0A1A000E0B6EA5
:1072B200000E0C6E000E0D6E000E0E6E05500610C6
:1072C20007100810D8B468EF39F06AEF39F0A0EF70
:1072D20039F0010E096E74EF39F0D8900536063692
:1072E20007360836092A08AE79EF39F07BEF39F014
:1072F2006EEF39F0D8900B360C360D360E3605503F
:10730200015C065002580750035808500458D8A090
:107312008DEF39F08FEF39F098EF39F00550015EBB
:107322000650025A0750035A0850045A0B80D8904C
:107332000832073206320532092E7BEF39F00A5045
:10734200D8B4A6EF39F0A8EF39F0B0EF39F00E1E3D
:107352000D1E0C1E0B6C000E0C220D220E220BC0F9
:1073620001F00CC002F00DC003F00EC004F01200D8
:107372002AEC37F0000E096E000E85EC36F0310E65
:1073820026EC36F02D0E26EC36F0430E26EC36F0C7
:10739200610E26EC36F0720E26EC36F06E0E26ECFE
:1073A20036F0650E26EC36F0200E26EC36F0640E32
:1073B20026EC36F0650E26EC36F0200E26EC36F082
:1073C200500E26EC36F06F0E26EC36F0720E26ECDE
:1073D20036F0630E26EC36F06F0E26EC36F0000E19
:1073E200096E010E85EC36F0320E26EC36F02D0ECB
:1073F20026EC36F0430E26EC36F0610E26EC36F023
:10740200720E26EC36F06E0E26EC36F0650E26EC89
:1074120036F0200E26EC36F0640E26EC36F0650EC1
:1074220026EC36F0200E26EC36F0420E26EC36F034
:107432006F0E26EC36F0690E26EC36F0000E096E61
:10744200020E85EC36F0330E26EC36F02D0E26ECCD
:1074520036F04C0E26EC36F0690E26EC36F06E0E47
:1074620026EC36F0670E26EC36F0750E26EC36F07A
:10747200690E26EC36F0630E26EC36F0610E26EC31
:1074820036F0000E096E030E85EC36F0340E26EC53
:1074920036F02D0E26EC36F0460E26EC36F0720E45
:1074A20026EC36F0610E26EC36F06E0E26EC36F047
:1074B200670E26EC36F06F0E26EC36F0120083CF04
:1074C20006F00F0E9512000E0A6EF80E93160AC001
:1074D20001F0010E026E012A71EF3AF0D8900236E5
:1074E200012E6FEF3AF002509312070E81120AC07A
:1074F20001F0010E026E012A81EF3AF0D8900236B5
:10750200012E7FEF3AF00250FF0A8116000E086E3C
:10751200000E076E074A082A08BE99EF3AF0085093
:1075220009E10A0E075CD8A099EF3AF09BEF3AF016
:107532008BEF3AF0000E096E09C001F0010E026EE7
:10754200012AA6EF3AF0D8900236012EA4EF3AF0C3
:10755200025083140009D8A4B1EF3AF0B3EF3AF025
:10756200CBEF3AF00A50040DF3500924016E010EDC
:10757200026E000E036E012AC2EF3AF0D890023674
:107582000336012EBFEF3AF002503212035033128B
:10759200E5EF3AF00A50040DF3500924016E010E92
:1075A200026E000E036E012ADAEF3AF0D89002362C
:1075B2000336012ED7EF3AF0021C046E031C056E4F
:1075C2000450321605503316092A030E0964ECEFF3
:1075D2003AF0EEEF3AF09DEF3AF00A2A020E0A6410
:1075E200F5EF3AF0F7EF3AF066EF3AF03250301832
:1075F20007E133503118D8A401EF3BF003EF3BF021
:1076020006EF3BF036060CEF3BF00A0E366E32C048
:1076120030F033C031F03650D8A412EF3BF014EF03
:107622003BF018EF3BF030C034F031C035F006C00B
:1076320083FF000E956E120002BE2BEF3BF002504C
:1076420007E1080E015CD8B029EF3BF02BEF3BF0CD
:1076520055EF3BF003500410D8B432EF3BF034EF57
:107662003BF044EF3BF001C005F0010E066E052A27
:107672003DEF3BF0D8900636052E3BEF3BF006502F
:10768200801243EF3CF001C005F0010E066E052AA0
:107692004DEF3BF0D8900636052E4BEF3BF00650EF
:1076A200FF0A801643EF3CF002BE63EF3BF002504C
:1076B20007E1100E015CD8B061EF3BF063EF3BF0E5
:1076C20091EF3BF0F80E0126FF0E02220350041048
:1076D200D8B46EEF3BF070EF3BF080EF3BF001C0AF
:1076E20005F0010E066E052A79EF3BF0D8900636BA
:1076F200052E77EF3BF00650811243EF3CF001C0BC
:1077020005F0010E066E052A89EF3BF0D890063689
:10771200052E87EF3BF00650FF0A811643EF3CF03F
:1077220002BE9FEF3BF0025007E1180E015CD8B099
:107732009DEF3BF09FEF3BF0CDEF3BF0F00E0126CB
:10774200FF0E022203500410D8B4AAEF3BF0ACEFB4
:107752003BF0BCEF3BF001C005F0010E066E052ABE
:10776200B5EF3BF0D8900636052EB3EF3BF006504E
:10777200821243EF3CF001C005F0010E066E052AAD
:10778200C5EF3BF0D8900636052EC3EF3BF006500E
:10779200FF0A821643EF3CF002BEDBEF3BF00250E1
:1077A20007E1200E015CD8B0D9EF3BF0DBEF3BF0F4
:1077B20009EF3CF0E80E0126FF0E022203500410EE
:1077C200D8B4E6EF3BF0E8EF3BF0F8EF3BF001C056
:1077D20005F0010E066E052AF1EF3BF0D890063651
:1077E200052EEFEF3BF00650831243EF3CF001C051
:1077F20005F0010E066E052A01EF3CF0D890063620
:10780200052EFFEF3BF00650FF0A831643EF3CF0D4
:1078120002BE17EF3CF0025007E1280E015CD8B01F
:1078220015EF3CF017EF3CF043EF3CF0E00E012681
:10783200FF0E022203500410D8B422EF3CF024EFD2
:107842003CF034EF3CF001C005F0010E066E052A53
:107852002DEF3CF0D8900636052E2BEF3CF006506B
:10786200841243EF3CF001C005F0010E066E052ABA
:107872003DEF3CF0D8900636052E3BEF3CF006502B
:10788200FF0A8416120002BE52EF3CF0025007E1DA
:10789200080E015CD8B050EF3CF052EF3CF07CEFA8
:1078A2003CF003500410D8B459EF3CF05BEF3CF0CD
:1078B2006BEF3CF001C005F0010E066E052A64EF85
:1078C2003CF0D8900636052E62EF3CF0065092123C
:1078D2006AEF3DF001C005F0010E066E052A74EF55
:1078E2003CF0D8900636052E72EF3CF00650FF0AA7
:1078F20092166AEF3DF002BE8AEF3CF0025007E1B9
:10790200100E015CD8B088EF3CF08AEF3CF0B8EF83
:107912003CF003500410D8B491EF3CF093EF3CF0EC
:10792200A5EF3CF001C005F0F80E0526010E066E2B
:10793200052A9EEF3CF0D8900636052E9CEF3CF0CF
:10794200065093126AEF3DF001C005F0F80E0526CD
:10795200010E066E052AB0EF3CF0D8900636052ED1
:10796200AEEF3CF00650FF0A93166AEF3DF002BEFE
:10797200C6EF3CF0025007E1180E015CD8B0C4EF2C
:107982003CF0C6EF3CF0F4EF3CF003500410D8B4E6
:10799200CDEF3CF0CFEF3CF0E1EF3CF001C005F061
:1079A200F00E0526010E066E052ADAEF3CF0D8909D
:1079B2000636052ED8EF3CF0065094126AEF3DF0E1
:1079C20001C005F0F00E0526010E066E052AECEF49
:1079D2003CF0D8900636052EEAEF3CF00650FF0A3E
:1079E20094166AEF3DF002BE02EF3DF0025007E14D
:1079F200200E015CD8B000EF3DF002EF3DF030EF19
:107A02003DF003500410D8B409EF3DF00BEF3DF008
:107A12001DEF3DF001C005F0E80E0526010E066ED1
:107A2200052A16EF3DF0D8900636052E14EF3DF0EC
:107A3200065095126AEF3DF001C005F0E80E0526EA
:107A4200010E066E052A28EF3DF0D8900636052E67
:107A520026EF3DF00650FF0A95166AEF3DF002BE92
:107A62003EEF3DF0025007E1280E015CD8B03CEF3A
:107A72003DF03EEF3DF06AEF3DF003500410D8B404
:107A820045EF3DF047EF3DF059EF3DF001C005F005
:107A9200E00E0526010E066E052A52EF3DF0D89043
:107AA2000636052E50EF3DF0065096126AEF3DF075
:107AB20001C005F0E00E0526010E066E052A64EFF0
:107AC2003DF0D8900636052E62EF3DF00650FF0AD3
:107AD20096161200000E226E000E236E000E246E09
:107AE200000E256E000E1E6E000E1F6E000E206E22
:107AF200000E216E000E2A6E100E296E000E286EE8
:107B0200100E276E000E956E000E836E66EC37F037
:107B120095EC35F0B9EC39F060EC3AF09AEC35F0CE
:107B22002950011809E12A500218D8B49BEF3DF000
:107B32009DEF3DF0DFEF3DF09AEC35F001C029F00A
:107B420002C02AF029A6A8EF3DF0AAEF3DF0B2EF5D
:107B52003DF00A0E226E000E236E000E246E000E01
:107B6200256E29AEB7EF3DF0B9EF3DF0C1EF3DF024
:107B7200070E226E000E236E000E246E000E256E7E
:107B82002AA6C6EF3DF0C8EF3DF0D0EF3DF0080E5B
:107B9200226E000E236E000E246E000E256E29A4A6
:107BA200D5EF3DF0D7EF3DF0DFEF3DF0090E226E4D
:107BB200000E236E000E246E000E256E225023103E
:107BC20024102510D8B4E8EF3DF0EAEF3DF08DEF38
:107BD2003DF095EC35F0B5EC38F060EC3AF09AEC0B
:107BE20035F02750011809E128500218D8B4FCEFEB
:107BF2003DF0FEEF3DF031EF3EF09AEC35F001C082
:107C020027F002C028F027A209EF3EF00BEF3EF06A
:107C120013EF3EF0020E1E6E000E1F6E000E206E5F
:107C2200000E216E27AA18EF3EF01AEF3EF022EF67
:107C32003EF0030E1E6E000E1F6E000E206E000E32
:107C4200216E28A227EF3EF029EF3EF031EF3EF001
:107C5200040E1E6E000E1F6E000E206E000E216EB0
:107C62001E501F1020102110D8B43AEF3EF03CEF06
:107C72003EF0EEEF3DF022C001F023C002F024C03E
:107C820003F025C004F01EC005F01FC006F020C09E
:107C920007F021C008F050EC36F001C017F002C026
:107CA20018F003C019F004C01AF017C001F018C090
:107CB20002F019C003F01AC004F0700E056E170E20
:107CC200066E000E076E000E086E50EC36F001C014
:107CD2002CF002C02DF003C02EF004C02FF02AECCD
:107CE20037F0000E956E000E836E030E096E010EC4
:107CF20085EC36F0470E26EC36F0520E26EC36F0C6
:107D0200450E26EC36F04C0E26EC36F0480E26ECEC
:107D120036F0410E26EC36F04E0E26EC36F0440ECE
:107D220026EC36F04F0E26EC36F04AEF3FF02C06EA
:107D3200000E2D5A2E5A2F5A050E096E020E85EC90
:107D420036F0600E056EEA0E066E000E076E000E2D
:107D5200086E2CC001F02DC002F02EC003F02FC01F
:107D620004F063EC38F001C00EF002C00FF003C063
:107D720010F004C011F0060E126E000E136E000E0B
:107D8200146E000E156E1FEC38F00E50300F26ECFC
:107D920036F0700E056E170E066E000E076E000EA0
:107DA200086E2CC001F02DC002F02EC003F02FC0CF
:107DB20004F063EC38F001C00EF002C00FF003C013
:107DC20010F004C011F00A0E126E000E136E000EB7
:107DD200146E000E156E1FEC38F00E50300F26ECAC
:107DE20036F03A0E26EC36F0E80E056E030E066EFD
:107DF200000E076E000E086E2CC001F02DC002F0BE
:107E02002EC003F02FC004F063EC38F001C00EF076
:107E120002C00FF003C010F004C011F0060E126E83
:107E2200000E136E000E146E000E156E1FEC38F06D
:107E32000E50300F26EC36F0640E056E000E066E04
:107E4200000E076E000E086E2CC001F02DC002F06D
:107E52002EC003F02FC004F063EC38F001C00EF026
:107E620002C00FF003C010F004C011F00A0E126E2F
:107E7200000E136E000E146E000E156E1FEC38F01D
:107E82000E50300F26EC36F0A8EC35F0600EBAEC4E
:107E920036F02C502D102E102F10D8A453EF3FF097
:107EA20055EF3FF098EF3EF0000E956E000E266EF5
:107EB200000E1C6E26C083FF030EA3EC37F02628AB
:107EC2001B6E26501B24266E1C2A080E1C646CEFA7
:107ED2003FF06EEF3FF05BEF3FF02C502D102E1075
:107EE2002F10D8A477EF3FF079EF3FF076EF3EF016
:107EF200000EBAEC36F02AEC37F0270E106E100E98
:107F02000F6ECCEC35F0000E1D6E020E1D648CEF70
:107F12003FF08EEF3FF090EF3FF0B7EF3FF0010EF2
:107F22002B6E2B50D8A498EF3FF09AEF3FF09CEFC6
:107F32003FF0B3EF3FF094822BC081FF2BC083FF51
:107F4200000E026E0F0E016E07EC36F02B50020D82
:107F5200F3CF2BF02B50D8A4B1EF3FF0B3EF3FF0AB
:107F62009CEF3FF094921D2A86EF3FF0000E816E47
:107F7200000E836E040E096E010E85EC36F0500E73
:107F820026EC36F0720E26EC36F06F0E26EC36F04A
:107F9200630E26EC36F0650E26EC36F0730E26ECF8
:107FA20036F0730E26EC36F06F0E26EC36F0030E2A
:107FB200096E020E85EC36F0460E26EC36F0690E9E
:107FC20026EC36F06E0E26EC36F0610E26EC36F01C
:107FD2006C0E26EC36F0690E26EC36F07A0E26ECA4
:107FE20036F0610E26EC36F0640E26EC36F06F0E9B
:0E7FF20026EC36F08368BBEF3FF000EF00F0A6
:020000040020DA
:08000000FFFFFFFFFFFFFFFF00
:020000040030CA
:0E000000FF021F00FF8381FF0FC00FE00F40C3
:00000001FF
